{
  "contractName": "Reproducer",
  "abi": [
    {
      "inputs": [],
      "stateMutability": "nonpayable",
      "type": "constructor"
    },
    {
      "inputs": [
        {
          "internalType": "uint256",
          "name": "_x",
          "type": "uint256"
        }
      ],
      "name": "setX",
      "outputs": [],
      "stateMutability": "nonpayable",
      "type": "function"
    }
  ],
  "bytecode": "0x608060405234801561001057600080fd5b50600160008190555060dc806100276000396000f3fe6080604052348015600f57600080fd5b506004361060285760003560e01c80634018d9aa14602d575b600080fd5b60436004803603810190603f91906062565b6045565b005b8060008190555050565b600081359050605c816092565b92915050565b600060208284031215607357600080fd5b6000607f84828501604f565b91505092915050565b6000819050919050565b6099816088565b811460a357600080fd5b5056fea26469706673582212209f15316bef91a1243df62f67d672c530126d18234f34b883056584723bb066a364736f6c63430008040033",
  "immutableReferences": {},
  "source": "// SPDX-License-Identifier: UNLICENSED\npragma solidity 0.8.4;\n\n\ncontract Reproducer {\n    uint256 x;\n    constructor() {\n        x = 1;\n    }\n\n    function setX(uint256 _x) public {\n        x = _x;\n    }\n}",
  "sourcePath": "C:\\Users\\thoms\\vs-repos\\verify-bug\\contracts\\Reproducer.sol",
  "compiler": {
    "name": "solc",
    "version": "0.8.4+commit.c7e474f2.Emscripten.clang"
  },
  "schemaVersion": "3.4.4",
  "updatedAt": "2022-02-17T21:17:49.387Z",
  "devdoc": {
    "kind": "dev",
    "methods": {},
    "version": 1
  },
  "userdoc": {
    "kind": "user",
    "methods": {},
    "version": 1
  }
}